:10000000803102288A31F72A7F3020002306031D21
:100010001328FF302206031D1328FF302106031D7D
:100020001328FF3020060319162817281E28250834
:100030002404031D1C281D282A281E2826088600A3
:100040008701FF30C03FFF30C13FFF30C23F7F30EC
:10005000C33F50282408F0002508F100F201F30105
:100060002308F7002208F6002108F5002008F40014
:100070008D318B25803173082000AA007208A900F9
:100080007108A8007008A7002608860087012708C5
:10009000C03F2808C13F2908C23F2A08C33F502853
:1000A00008008B317A2380318C31172480318B31D9
:1000B000942380318A31E82280312000DC01DD0187
:1000C00061288631092680318B3117238031200049
:1000D000D8005808DB005B08031D6F281F29D901D1
:1000E0005B08D8005808DA00DD285908013E0139BC
:1000F000D8005808D9008631092680318B31172362
:1001000080312000D8005808DA005A08D800580872
:10011000DB04D0285D08D8005808F7000330F00051
:100120000030F1005C08013EF2000030031801309D
:10013000F3008D312D25803170088C3143248031BE
:10014000DD280330F0000030F10020005D08013EA2
:10015000F200003003180130F3008D312D2580317D
:1001600070082000D8005808F7005C088C31432440
:100170008031DD282000D908031DBF28C028C428ED
:100180008A31AC228031DD2820005D08D800580873
:10019000F7005C088C3143248031DD28DD28DD2820
:1001A00020005B08013A03198A28033A0319A128A1
:1001B000013A0319BA28DD28DD282000DA08031DDA
:1001C000E228E3287528122912290330F0000030B4
:1001D000F1005C08013EF200003003180130F3002A
:1001E0008D312D25803170082000D8005808DC00A2
:1001F00061280330F0000030F1005D08013EF2009C
:10020000003003180130F3008D312D258031700846
:100210002000D8005808DD0061288C31712480311D
:100220006128612820005B08013A0319E528033A98
:100230000319F928013A03190D29612861285D087D
:10024000D8005808B8005C0881312C218031612821
:1002500061286128803102282000BF00E4292100A4
:1002600023082000AD00210022082000AC0021005E
:1002700021082000AB00210020082000AA008431C2
:10028000232481310C2A21002F082000AD002100F9
:100290002E082000AC0021002D082000AB0021001A
:1002A0002C082000AA008431232481310C2A21004B
:1002B0003B082000AD0021003A082000AC002100DE
:1002C00039082000AB00210038082000AA00843142
:1002D000232481310C2A21002B082000AD002100AD
:1002E0002A082000AC00210029082000AB002100D2
:1002F00028082000AA008431232481310C2A2100FF
:1003000037082000AD00210036082000AC00210095
:1003100035082000AB00210034082000AA008431F9
:10032000232481310C2A210043082000AD00210044
:1003300042082000AC00210041082000AB00210051
:1003400040082000AA008431232481310C2A210096
:1003500027082000AD00210026082000AC00210065
:1003600025082000AB00210024082000AA008431C9
:10037000232481310C2A210033082000AD00210004
:1003800032082000AC00210031082000AB00210021
:1003900030082000AA008431232481310C2A210056
:1003A0003F082000AD0021003E082000AC002100E5
:1003B0003D082000AB0021003C082000AA00843149
:1003C000232481310C2A0C2A20003808B900BA01F4
:1003D0003F08BB00BC013B08F0003C08F1000330C3
:1003E000F2000030F3008B31CF2381312000390837
:1003F0007007BD003A08713DBE003E08003A03197F
:10040000022A0C2A3D0884000930040203180C2A31
:10041000883104358D3E820008000A308B31AF23CD
:10042000823171082000CC01CC077008CB01CB07CA
:1004300003304C02FF3003194B020318202A212AF3
:100440000C2B0030AF000030AE000330AD00FF30A9
:10045000AC004B08BF004C08C000C101C2010C3009
:10046000BF35C00DC10DC20D890B302A4208A30053
:100470004108A2004008A1003F08A0000030A700EA
:100480000030A6000030A5006430A4008C31A32405
:10049000823120002308B3002208B2002108B100F5
:1004A0002008B0008D31EC25823120002F08D000CB
:1004B0002E08CF002D08CE002C08CD007A30840005
:1004C00088308500003FBF00013FC000023FC100EF
:1004D000033FC20050084202031D782A4F08410220
:1004E000031D782A4E084002031D782A4D083F025A
:1004F00003187B2A7C2A912A7A3084008830850070
:10050000003FBF00013FC000023FC100033FC200E7
:100510003F08CD024008CE3B4108CF3B4208D03BCC
:100520009A2A0030D0000030CF000030CE000030DA
:10053000CD009A2A7630840088308500003FF00094
:10054000013FF100023FF200033FF3005008F700C3
:100550004F08F6004E08F5004D08F4008D318B254C
:10056000823173082000CA007208C9007108C800EF
:100570007008C7000030F3000030F2000030F100D6
:100580006430F0004D08BF004E08C0004F08C100A5
:100590005008C2004709C3004809C4004909C50002
:1005A0004A09C600C30A0319C40A0319C50A031974
:1005B000C60A4308BF074408C03D4508C13D460878
:1005C000C23D4208F7004108F6004008F5003F0828
:1005D000F4008D318B25823173082000A30072084E
:1005E000A2007108A1007008A0000030A700003030
:1005F000A6000030A5006430A4008C31A324823111
:1006000020002308BE002208BD002108BC002008ED
:10061000BB00162B162B162B7F30BE00FF30BD0003
:10062000FF30BC00FF30BB00162B162B080020004B
:10063000CB004B088B31AF23833171082000CD01F3
:10064000CD077008CC01CC0703304D02FF300319F1
:100650004C0203182C2B2D2B182C0030AF0000302F
:10066000AE000330AD00FF30AC004C08BF004D08B9
:10067000C000C101C2010C30BF35C00DC10DC20D9B
:10068000890B3C2B4208A3004108A2004008A100AE
:100690003F08A0000030A7000030A6000030A500F1
:1006A000C830A4008C31A324833120002308B30078
:1006B0002208B2002108B1002008B0008D31EC25DD
:1006C000833120002F08D1002E08D0002D08CF0044
:1006D0002C08CE008230840088308500003FBF00A7
:1006E000013FC000023FC100033FC2005108420267
:1006F000031D842B50084102031D842B4F08400228
:10070000031D842B4E083F020318872B882B9D2B3B
:100710008230840088308500003FBF00013FC00068
:10072000023FC100033FC2003F08CE024008CF3B5A
:100730004108D03B4208D13BA62B0030D10000300D
:10074000D0000030CF000030CE00A62B7E308400D9
:1007500088308500003FF000013FF100023FF200C9
:10076000033FF3005108F7005008F6004F08F5006A
:100770004E08F4008D318B25833173082000CA00A8
:100780007208C9007108C8007008C7000030F30083
:100790000030F2000030F1006430F0004E08BF007D
:1007A0004F08C0005008C1005108C2004709C300EB
:1007B0004809C4004909C5004A09C600C30A03190B
:1007C000C40A0319C50A0319C60A4308BF07440827
:1007D000C03D4508C13D4608C23D4208F7004108FA
:1007E000F6004008F5003F08F4008D318B25833179
:1007F00073082000A3007208A2007108A10070080D
:10080000A0000030A7000030A6000030A500643032
:10081000A4008C31A324833120002308BE002208C9
:10082000BD002108BC002008BB00222C222C222C59
:100830007F30BE00FF30BD00FF30BC00FF30BB008A
:10084000222C222C0800003020002D02031D322C07
:100850000F302C02031D322C42302B02031D322C90
:1008600040302A02031C352C362C3A2C8B310623BF
:100870008431082E003020002D02031D492C013048
:100880002C02031D492C86302B02031D492CA0305D
:100890002A02031C4C2C4D2CE02C0030A30000300D
:1008A000A2000030A1000A30A0000030F3000130A7
:1008B000F2008630F100A030F0002D08F7002C087F
:1008C000F6002B08F5002A08F4008D318B258431C1
:1008D00073082000A7007208A6007108A500700820
:1008E000A4008C31DB24843120002008AE002E08C7
:1008F000B0000030A3000030A2000030A1000A3098
:10090000A0000030F3000030F2002730F10010307A
:10091000F0002D08F7002C08F6002B08F5002A0837
:10092000F4008D318B25843173082000A7007208F4
:10093000A6007108A5007008A4008C31DB24843166
:1009400020002008AE002E08B1000030A3000030C7
:10095000A2000030A1000A30A0000030F3000030F7
:10096000F2000330F100E830F0002D08F7002C0809
:10097000F6002B08F5002A08F4008D318B25843110
:1009800073082000A7007208A6007108A50070086F
:10099000A4008C31DB24843120002008AE002E0816
:1009A000B2003108AE002E08F4003208AF002F0864
:1009B000F500F601F60A30088F313E278431082E03
:1009C000003020002D02031DEF2C00302C02031DEF
:1009D000EF2C27302B02031DEF2C10302A02031CB2
:1009E000F22CF32C5A2D0030A3000030A20000306E
:1009F000A1000A30A0000030F3000030F2002730E0
:100A0000F1001030F0002D08F7002C08F6002B083C
:100A1000F5002A08F4008D318B25843173082000FD
:100A2000A7007208A6007108A5007008A4008C3108
:100A3000DB24843120002008AE002E08B3000030F3
:100A4000A3000030A2000030A1000A30A000003056
:100A5000F3000030F2000330F100E830F0002D0820
:100A6000F7002C08F6002B08F5002A08F4008D3159
:100A70008B25843173082000A7007208A600710836
:100A8000A5007008A4008C31DB24843120002008EC
:100A9000AE002E08B4003308AE002E08F40034086F
:100AA000AF002F08F500F601F60AFF308F313E2720
:100AB0008431082E003020002D02031D692D0030E6
:100AC0002C02031D692D03302B02031D692DE83014
:100AD0002A02031C6C2D6D2DBF2D0030F300003059
:100AE000F2000330F100E830F0002D08F7002C0888
:100AF000F6002B08F5002A08F4008D318B2584318F
:100B000070082000AE002E08B5000030A3000030B1
:100B1000A2000030A1000A30A0000030F300003035
:100B2000F2000030F1006430F0002D08F7002C08CE
:100B3000F6002B08F5002A08F4008D318B2584314E
:100B400073082000A7007208A6007108A5007008AD
:100B5000A4008C31DB24843120002008AE002E0854
:100B6000B6003508AE002E08F4003608AF002F0896
:100B7000F500F601FF308F313E278431082E00301A
:100B800020002D02031DCE2D00302C02031DCE2D82
:100B900000302B02031DCE2D64302A02031CD12D00
:100BA000D22DF82D0030F3000030F2000030F100BB
:100BB0006430F0002D08F7002C08F6002B08F50033
:100BC0002A08F4008D318B25843170082000AE0096
:100BD0002E08B700FF30AE002E08F4003708AF0033
:100BE0002F08F500F601FF308F313E278431082EA3
:100BF000FF302000AE002E08F400F501F601FF30B2
:100C00008F313E278431082E082E082E082E082EFC
:100C100008008A31A522863100302100CB00003047
:100C2000CA000030C9000030C8000030CF000030DA
:100C3000CE000030CD000030CC000030D3000030BA
:100C4000D2000030D1000030D000D401D501D6014F
:100C5000D701D801D901DA018C3088310A008631F8
:100C60005A02031C342E352E372E9D2F9D2F823194
:100C70000D22863120003E082100E20020003D08C0
:100C80002100E10020003C082100E00020003B089A
:100C90002100DF008A31D922863120005508210049
:100CA000E600200054082100E50020005308210040
:100CB000E400200052082100E3007F306206031D9B
:100CC0006B2EFF306106031D6B2EFF306006031D87
:100CD0006B2EFF305F0603196E2E6F2EEA2E7F30CB
:100CE0006606031D7D2EFF306506031D7D2EFF3039
:100CF0006406031D7D2EFF3063060319802E812EAE
:100D0000EA2E0030F3000030F2000030F1006430D1
:100D1000F0006208F7006108F6006008F5005F085F
:100D2000F4008D318B25863173082000A3007208F2
:100D3000A2007108A1007008A0000030F30000308C
:100D4000F2000030F1006430F00021006608F70086
:100D50006508F6006408F5006308F4008D318B2502
:100D6000863173082000A7007208A6007108A5004C
:100D70007008A4008C31A3248631200023082100B0
:100D8000C700200022082100C60020002108210001
:100D9000C500200020082100C4000030F30000300E
:100DA000F2000030F1000A30F0004708F700460872
:100DB000F6004508F5004408F4008D318B25863196
:100DC00073082100DE007208DD007108DC00700885
:100DD000DB00F32E7F30DE00FF30DD00FF30DC0073
:100DE000FF30DB00F32E6208F3006108F2006008B8
:100DF000F1005F08F000B8302000D6005608F4007B
:100E0000AC30D7005708F5008E318426863121009A
:100E10006608F3006508F2006408F1006308F0005A
:100E2000C0302000D6005608F400B430D700570870
:100E3000F5008E318426863121005E08F3005D08BE
:100E4000F2005C08F1005B08F000BC302000D60026
:100E50005608F400B030D7005708F5008E318426CC
:100E600086317F3021006202031D402FFF30610276
:100E7000031D402FFF306002031D402FFF305F0233
:100E80000318432F442F502F5F08C8076008C93D3F
:100E90006108CA3D6208CB3D0130D4070030D53D22
:100EA0007F306602031D5E2FFF306502031D5E2F3B
:100EB000FF306402031D5E2FFF3063020318612FB1
:100EC000622F6E2F6308CC076408CD3D6508CE3DC8
:100ED0006608CF3D0130D6070030D73D7F305E0237
:100EE000031D7C2FFF305D02031D7C2FFF305C0251
:100EF000031D7C2FFF305B0203187F2F802F8D2F67
:100F00005B08D0075C08D13D5D08D23D5E08D33D4B
:100F10000130D8070030D93D8D2F01302000D60098
:100F200056082100DA078C3088310A0087315A02CE
:100F3000031C9B2F9C2F372E9D2F4B082000A300B6
:100F400021004A082000A200210049082000A10039
:100F5000210048082000A000210055082000A5011C
:100F6000A507210054082000A401A407A030D60042
:100F70005608A60080310420863121004F08200049
:100F8000A30021004E082000A20021004D082000EF
:100F9000A10021004C082000A000210057082000DB
:100FA000A501A507210056082000A401A407A83028
:100FB000D6005608A600803104208631210053084F
:100FC0002000A300210052082000A20021005108A7
:100FD0002000A100210050082000A0002100590895
:100FE0002000A501A507210058082000A401A4079E
:100FF000A430D6005608A6008031042086310800AF
:10100000003448340034E1340034003421344434B2
:101010000034C1344434003461340C34003421349D
:101020004C34003460344C340034E0344034003408
:1010300021344C340034E1344C3400346134903485
:101040008634023480340034023410348C34023458
:1010500080348C34023480340A34023480348E3448
:10106000003490348E3400348034043402349034AC
:101070008E34023480348E340234013430341C34E3
:101080000134003410340034313418340134213444
:101090001834013401341434013421340C34013453
:1010A00031340C34013400341834013431341C34FC
:1010B000013421341C341034023400340034103430
:1010C00004340834003480349034823402340134DF
:1010D0003034143408340034E13410340E34023423
:1010E000003411341C344C3400348134F434013471
:1010F00000340034C934003400340034F434013492
:10110000003400349134013400340034203400348D
:10111000003458348234E134643481312F298131F0
:1011200043298131572981316B2981317F298131CF
:0E11300093298131A7298131BB298131CF2933
:10154A006400080020009E1395010B1108002F006B
:10155A00A001A101A2010800FE0012001E00FE0B5C
:10156A00B22A00348A31A7228A3120009F151F111E
:10157A009F101F149E1708008A31A7228A31200063
:10158A009F151F119F141F109E17080020009E13FD
:10159A000B1DD02AD12AD52AFF30D82AD82AD82AF0
:1015AA001508D82AD82A08000830833117238A3127
:1015BA0020003E08D5003D08D4003C08D3003B0873
:1015CA00D200E72A080021000F0806388F002300FE
:1015DA000F0806388F0020009E151E159E141E1433
:1015EA009E130800F33084008B308500A0308600FB
:1015FA000030870024308A31B1228A3120008031BC
:10160A005128893088310A008B312F00A0008A3096
:10161A0088310A008B31A1008B3088310A008B3166
:10162A00A2000800F2018B3160238B31031C1E2BB0
:10163A001F2B212B7214212B8B3146238B31031C38
:10164A00272B282B2A2BF2142A2B72082C2B080062
:10165A00F300F201302B731C332B342B392B700817
:10166A00F1007108F207392B0310F00D0310F30C87
:10167A00F308031D412B422B302B432B7208452BB9
:10168A0008008A31B7228B310330F1009730F0001D
:10169A00F00B4D2BF10B4D2B522B8A31CB228B3178
:1016AA00FF3A031D592B5A2B5C2B03105F2B031493
:1016BA005F2B5F2B08008A31C1228B310330F10086
:1016CA009730F000F00B672BF10B672B6C2B8A31EC
:1016DA00CB228B31FF3A031D732B742B762B03100D
:1016EA00792B0314792B792B08008B1321001917F6
:1016FA009916191699159712171697111715971003
:10170A0023008C018D018F0121008C018D018E0136
:10171A008F0122008C018D018E018F0108002200A9
:10172A0097141714971721000D080E388D002300FF
:10173A000D080E388D0021009E171E179E161E16C4
:10174A001E119E141E141D179D161D169D151D157E
:10175A001D140800F3007308F2000130F235FF3E51
:10176A00031DB32B7235013821009D001130F200A0
:10177A00F20BBD2B21009D14C22B9D18C52BC62B25
:10178A00C22B1D101C08F101F1071B08F001F0071C
:10179A00CE2B0800F401F501D22B701CD52BD62BC9
:1017AA00DA2B7208F4077308F53D0130F235F30DB0
:1017BA00890BDB2B0130F136F00C890BE02B710819
:1017CA007004031DE92BEA2BD22BEB2B7508F101D0
:1017DA00F1077408F001F007F22B0800FF34FF3418
:1017EA00FF347F34FF34FF34FF347F34FF34FF3457
:1017FA00FF347F34FF34FF34FF347F34FF34FF3447
:10180A00FF347F34FF34FF34FF347F34FF34FF3436
:10181A00FF347F34FF34FF34FF347F34FF34FF3426
:10182A00FF347F342F00921312139216121692115C
:10183A00121192141214FD309800BF309900FF3033
:10184A009A0091101110911511111113A001A10103
:10185A00A201200012112F009517151795161516BB
:10186A00151195101510931713179312931113113D
:10187A00931014119414141491170800FA000330E9
:10188A00F8007808F0007A088B312D238C3177071D
:10189A00F9007908FB000330F8007808F0007B08AB
:1018AA008B312D238C31F9007908FC007C085B3ED2
:1018BA0088310A008C312F00A0007C08013E5B3E73
:1018CA0088310A008C31A1007C08023E5B3E8831D7
:1018DA000A008C31A20008007F302100BB00FF30D3
:1018EA00BA00FF30B900FF30B8007F30AF00FF30D8
:1018FA00AE00FF30AD00FF30AC007F30C300FF30D8
:10190A00C200FF30C100FF30C0007F30B700FF3097
:10191A00B600FF30B500FF30B4007F30BF00FF30A3
:10192A00BE00FF30BD00FF30BC007F30B300FF3087
:10193A00B200FF30B100FF30B000080000302000D4
:10194A00AB000030AA000030A9000030A800AD2C7E
:10195A00201CB02CB12CBA2C2408A8072508A93DB4
:10196A002608AA3D2708AB3DBA2C0130A435A50D9F
:10197A00A60DA70D890BBB2C0130A336A20CA10C16
:10198A00A00C890BC22C2308220421042004031D65
:10199A00CF2CD02CAD2CD12C2B08A3002A08A200C6
:1019AA002908A1002808A000DA2C08002000230832
:1019BA002204210420040319E32CE42C232DA90179
:1019CA00A90AF32C0130A035A10DA20DA30D890B94
:1019DA00E82C0130A8002808A907F32CA31FF62C2D
:1019EA00F72CE72CF92CF92C23082702031D072DC5
:1019FA0022082602031D072D21082502031D072D93
:101A0A0020082402031C0A2D0B2D142D2008A402E1
:101A1A002108A53B2208A63B2308A73B142D013029
:101A2A00A336A20CA10CA00C890B152D0130A9021A
:101A3A00031D202D212DF92C232D232D2708A3004A
:101A4A002608A2002508A1002408A0002C2D0800C1
:101A5A00F601F31F312D322D3A2DF209F309F20A5C
:101A6A000319F30AF601F60A3A2DF11F3D2D3E2D10
:101A7A00442DF009F109F00A0319F10A442D7108FD
:101A8A0070040319492D4A2D792DF501F50A572DB0
:101A9A000130F035F10D890B4E2D0130F400740838
:101AAA00F507572DF11F5A2D5B2D4D2D5D2D5D2DFF
:101ABA0071087302031D632D70087202031C662DE0
:101ACA00672D6C2D7008F2027108F33B6C2D013002
:101ADA00F136F00C890B6D2D0130F502031D762DC0
:101AEA00772D5D2D792D792D7608031D7D2D832D7A
:101AFA00F209F309F20A0319F30A832D7308F101B3
:101B0A00F1077208F001F0078A2D08000030FC0086
:101B1A000030FB000030FA000030F900730872044C
:101B2A007104700403199A2D9B2DE22DFD01FD0A03
:101B3A00AA2D0130F035F10DF20DF30D890B9F2D11
:101B4A000130F8007808FD07AA2DF31FAD2DAE2D40
:101B5A009E2DB02DB02D0130F935FA0DFB0DFC0D7F
:101B6A00890BB12D73087702031DC52D7208760201
:101B7A00031DC52D71087502031DC52D7008740259
:101B8A00031CC82DC92DD32D7008F4027108F53B2A
:101B9A007208F63B7308F73B7914D32D0130F336FC
:101BAA00F20CF10CF00C890BD42D0130FD02031D4F
:101BBA00DF2DE02DB02DE22DE22D7C08F3007B080D
:101BCA00F2007A08F1007908F000EB2D08002000F5
:101BDA00B601AF1FF12DF22DFF2DAC09AD09AE09EB
:101BEA00AF09AC0A0319AD0A0319AE0A0319AF0A01
:101BFA00B601B60AB31F022E032E132EB009B1097D
:101C0A00B209B309B00A0319B10A0319B20A0319CE
:101C1A00B30A0130B4003408B606132E0030BA00F5
:101C2A000030B9000030B8000030B7002F082E0489
:101C3A002D042C040319222E232E6A2EB501B50A6F
:101C4A00322E0130AC35AD0DAE0DAF0D890B272EFE
:101C5A000130B4003408B507322EAF1F352E362EA8
:101C6A00262E382E382E0130B735B80DB90DBA0DDB
:101C7A00890B392E2F083302031D4D2E2E083202EE
:101C8A00031D4D2E2D083102031D4D2E2C08300246
:101C9A00031C502E512E5B2E2C08B0022D08B13B8E
:101CAA002E08B23B2F08B33B37145B2E0130AF36F8
:101CBA00AE0CAD0CAC0C890B5C2E0130B502031DC9
:101CCA00672E682E382E6A2E6A2E3608031D6E2E4F
:101CDA007A2EB709B809B909BA09B70A0319B80AAD
:101CEA000319B90A0319BA0A7A2E3A08AF00390851
:101CFA00AE003808AD003708AC00832E08007F30EC
:101D0A007306031D922EFF307206031D922EFF30BA
:101D1A007106031D922EFF307006031D952E962E16
:101D2A00982E3D2F3D2F740886008701403FF6000C
:101D3A00413FF700423FF800433FF9007F30790600
:101D4A00031DB12EFF307806031DB12EFF30770632
:101D5A00031DB12EFF307606031DB42EB52EC12EFB
:101D6A007408860087017008C03F7108C13F720875
:101D7A00C23F7308C33FEA2E740886008701403FBA
:101D8A00F600413FF700423FF800433FF900790867
:101D9A007302031DDA2E78087202031DDA2E770801
:101DAA007102031DDA2E760870020318DD2EDE2E6C
:101DBA00EA2E7408860087017008C03F7108C13F87
:101DCA007208C23F7308C33FEA2E7508860087016E
:101DDA00403FF600413FF700423FF800433FF90019
:101DEA007F307906031D032FFF307806031D032F6A
:101DFA00FF307706031D032FFF307606031D062FDB
:101E0A00072F132F7508860087017008C03F7108D5
:101E1A00C13F7208C23F7308C33F3D2F7508860051
:101E2A008701403FF600413FF700423FF800433F39
:101E3A00F90073087902031D2C2F72087802031D1A
:101E4A002C2F71087702031D2C2F700876020318B5
:101E5A002F2F302F3D2F7508860087017008C03F4D
:101E6A007108C13F7208C23F7308C33F3D2F3D2F1F
:101E7A0008002000A000A401A501A6010A30200242
:101E8A000318482F492F732F0330F7007708F00003
:101E9A0020088B312D238F31F80078082000A1000B
:101EAA002108013E88310A008F312404F70077089F
:101EBA00A4002108013E013E88310A008F31250421
:101ECA00F7007708A5002108023E013E88310A0082
:101EDA008F312604F7007708A600732F0A307402A0
:101EEA000318782F792FA42F0330F7007708F00012
:101EFA0074088B312D238F311E3EF800780820009C
:101F0A00A2002208013E88310A008F312404F7001A
:101F1A007708A4002208013E013E88310A008F3169
:101F2A002504F7007708A5002208023E013E883101
:101F3A000A008F312604F7007708A600A42F0A307A
:101F4A0075020318A92FAA2FD52F0330F700770897
:101F5A00F00075088B312D238F313C3EF80078084C
:101F6A002000A3002308013E88310A008F3124048F
:101F7A00F7007708A4002308013E013E88310A00D1
:101F8A008F312504F7007708A5002308023E013E99
:101F9A0088310A008F312604F7007708A600D52F6A
:101FAA007608031DD92FF42F863088310A008F3125
:101FBA00F70024087704F8007808A40087308831ED
:101FCA000A008F312504F7007708A5008830883188
:101FDA000A008F312604F7007708A600F42F240898
:101FEA002F00A000200025082F00A10020002608AD
:061FFA002F00A200080008
:020000040001F9
:04000E009CEFEFDA9A
:00000001FF
