:10000000803102288C31212C640008000030FC0073
:100010000030FB000030FA000030F9007308720471
:10002000710470040319152816285D28FD01FD0AC6
:1000300025280130F035F10DF20DF30D890B1A284A
:100040000130F8007808FD072528F31F2828292803
:1000500019282B282B280130F935FA0DFB0DFC0D42
:10006000890B2C2873087702031D4028720876023A
:10007000031D402871087502031D40287008740292
:10008000031C432844284E287008F4027108F53BED
:100090007208F63B7308F73B79144E280130F336AB
:1000A000F20CF10CF00C890B4F280130FD02031DFE
:1000B0005A285B282B285D285D287C08F3007B08E4
:1000C000F2007A08F1007908F0006628080008308C
:1000D0008C31D924803171082000BD01BD07700822
:1000E000BC01BC077630840088308500003FB0003A
:1000F000013FB100023FB200033FB3003C08B4002F
:100100003D08B500B601B70133083702031D922838
:1001100032083602031D922831083502031D922849
:100120003008340203189528962819293C08A000A5
:100130003D08A100A201A30182308400883085001F
:10014000003FA400013FA500023FA600033FA70017
:100150008D31CD25803120002308BB002208BA0054
:100160002108B9002008B800763084008830850066
:10017000003FF000013FF100023FF200033FF300B7
:100180003B08A3003A08A2003908A1003808A000E3
:100190007E30840088308500003FA400013FA50028
:1001A000023FA600033FA7008D31CD2580312000FE
:1001B0002308F7002208F6002108F5002008F400C3
:1001C00080310620803173082000C1007208C00011
:1001D0007108BF007008BE0000304102031DFA28FC
:1001E00000304002031DFA2800303F02031DFA28A8
:1001F00064303E02031CFD28FE280E296430B00046
:100200000030B1000030B2000030B3003008BE0250
:100210003108BF3B3208C03B3308C13B4108AF0047
:100220004008AE003F08AD003E08AC00232923295A
:1002300023297F30AF00FF30AE00FF30AD00FF302C
:10024000AC002329232908000A308C31D9248131BC
:1002500071082000BD01BD077008BC01BC077630E5
:10026000840088308500003FB000013FB100023FAC
:10027000B200033FB3003C08B4003D08B500B6012E
:10028000B70133083702031D4F2932083602031D18
:100290004F2931083502031D4F2930083402031855
:1002A00052295329D6293C08A0003D08A100A201EB
:1002B000A3018230840088308500003FA400013F04
:1002C000A500023FA600033FA7008D31CD25813157
:1002D00020002308BB002208BA002108B90020082A
:1002E000B8007630840088308500003FF000013F80
:1002F000F100023FF200033FF3003B08A3003A087D
:10030000A2003908A1003808A0007A3084008830A3
:100310008500003FA400013FA500023FA600033F67
:10032000A7008D31CD25813120002308F700220858
:10033000F6002108F5002008F40080310620813104
:1003400073082000C1007208C0007108BF00700867
:10035000BE0000304102031DB72900304002031DDA
:10036000B72900303F02031DB72964303E02031C49
:10037000BA29BB29CB296430B0000030B10000306D
:10038000B2000030B3003008BE023108BF3B320873
:10039000C03B3308C13B4108AF004008AE003F08F6
:1003A000AD003E08AC00E029E029E0297F30AF0035
:1003B000FF30AE00FF30AD00FF30AC00E029E02997
:1003C00008002000A000A401A501A6010A30200217
:1003D0000318EB29EC29162A0330F7007708F00000
:1003E00020088C3157248131F80078082000A100C2
:1003F0002108013E88310A0081312404F700770882
:10040000A4002108013E013E88310A008231250402
:10041000F7007708A5002108023E013E88310A0056
:1004200082312604F7007708A600162A0A307402E3
:1004300003181B2A1C2A472A0330F7007708F0000C
:1004400074088C31572481311E3EF8007808200052
:10045000A2002208013E88310A0082312404F700FC
:100460007708A4002208013E013E88310A0082314B
:100470002504F7007708A5002208023E013E8831D6
:100480000A0082312604F7007708A600472A0A30BE
:10049000750203184C2A4D2A782A0330F700770892
:1004A000F00075088C31572481313C3EF800780803
:1004B0002000A3002308013E88310A008231240471
:1004C000F7007708A4002308013E013E88310A00A6
:1004D00082312504F7007708A5002308023E013E7B
:1004E00088310A0082312604F7007708A600782AAE
:1004F0007608031D7C2A972A863088310A008231CB
:10050000F70024087704F8007808A40087308831C1
:100510000A0082312504F7007708A5008830883169
:100520000A0082312604F7007708A600972A2408DB
:100530002F00A000200025082F00A1002000260881
:100540002F00A20008008C31702482318D314125AA
:1005500082318C31BE2482318C31122482312000D0
:10056000EB01EC01B32A84315F2482318C314124C8
:1005700082312000E7006708EA006A08031DC12AEB
:10058000712BE8016A08E7006708E9002F2B68086B
:10059000013E0139E7006708E80084315F248231B9
:1005A0008C31412482312000E7006708E9006908A6
:1005B000E7006708EA04222B6C08E7006708F700E9
:1005C0000330F0000030F1006B08013EF200003013
:1005D00003180130F3008E315726823170088D31B7
:1005E0006D2582312F2B0330F0000030F100200008
:1005F0006C08013EF200003003180130F3008E3128
:100600005726823170082000E7006708F7006B0862
:100610008D316D2582312F2B2000E808031D112B11
:10062000122B162B8B31E52382312F2B20006C08E7
:10063000E7006708F7006B088D316D2582312F2B9D
:100640002F2B2F2B20006A08013A0319DC2A033ACA
:100650000319F32A013A03190C2B2F2B2F2B2000FF
:10066000E908031D342B352BC72A642B642B033078
:10067000F0000030F1006B08013EF200003003187A
:100680000130F3008E315726823170082000E700D8
:100690006708EB00B32A0330F0000030F1006C086B
:1006A000013EF200003003180130F3008E3157266E
:1006B000823170082000E7006708EC00B32A8D3112
:1006C0009B258231B32AB32A20006A08013A031914
:1006D000372B033A03194B2B013A03195F2BB32A2B
:1006E000B32A6C08E7006708B8006B0883317E23E3
:1006F0008231B32AB32AB32A803102282000BF00F6
:10070000362C210023082000AD0021002208200003
:10071000AC00210021082000AB00210020082000AF
:10072000AA0086311A2683315E2C21002F08200072
:10073000AD0021002E082000AC0021002D08200073
:10074000AB0021002C082000AA0086311A26833134
:100750005E2C21003B082000AD0021003A0820005B
:10076000AC00210039082000AB002100380820002F
:10077000AA0086311A2683315E2C21002B08200026
:10078000AD0021002A082000AC002100290820002B
:10079000AB00210028082000AA0086311A268331E8
:1007A0005E2C210037082000AD0021003608200013
:1007B000AC00210035082000AB00210034082000E7
:1007C000AA0086311A2683315E2C210043082000BE
:1007D000AD00210042082000AC00210041082000AB
:1007E000AB00210040082000AA0086311A26833180
:1007F0005E2C210027082000AD00210026082000E3
:10080000AC00210025082000AB00210024082000B6
:10081000AA0086311A2683315E2C2100330820007D
:10082000AD00210032082000AC002100310820007A
:10083000AB00210030082000AA0086311A2683313F
:100840005E2C21003F082000AD0021003E08200062
:10085000AC0021003D082000AB0021003C08200036
:10086000AA0086311A2683315E2C5E2C20003808BF
:10087000B900BA013F08BB00BC013B08F0003C08CE
:10088000F1000330F2000030F3008C31F9248331A1
:10089000200039087007BD003A08713DBE003E08CF
:1008A000003A0319542C5E2C3D08840009300402E0
:1008B00003185E2C883104358D3E8200080080319B
:1008C0000420843100302000CB000030CA0000300A
:1008D000C9000030C8000030CF000030CE0000302A
:1008E000CD000030CC000030D3000030D20000300A
:1008F000D1000030D000D401D501D601D701D801F4
:10090000D901DA018C3088310A0084315A02031C83
:100910008A2C8B2C8D2CD82DD82D813124218431FB
:1009200020002F08E2002E08E1002D08E0002C082E
:10093000DF0080316720843120002F08E6002E0878
:10094000E5002D08E4002C08E3007F306206031D5B
:10095000B32CFF306106031DB32CFF306006031D6E
:10096000B32CFF305F060319B62CB72C2A2D7F302D
:100970006606031DC52CFF306506031DC52CFF3020
:100980006406031DC52CFF3063060319C82CC92C4F
:100990002A2D0030F3000030F2000030F100643006
:1009A000F0006208F7006108F6006008F5005F08D3
:1009B000F40080310620843173082000A3007208FF
:1009C000A2007108A1007008A0000030F300003000
:1009D000F2000030F1006430F0006608F7006508AE
:1009E000F6006408F5006308F400803106208431C5
:1009F00073082000A7007208A6007108A5007008FF
:100A0000A4008D31CD25843120002308C7002208A1
:100A1000C6002108C5002008C4000030F3000030E3
:100A2000F2000030F1000A30F0004708F7004608F5
:100A3000F6004508F5004408F400803106208431B2
:100A400073082000DE007208DD007108DC00700809
:100A5000DB00332D7F30DE00FF30DD00FF30DC00B7
:100A6000FF30DB00332D6208F3006108F2006008FC
:100A7000F1005F08F000B830C2004208F400AC306A
:100A8000C3004308F5008F314627843120006608F3
:100A9000F3006508F2006408F1006308F000C0305C
:100AA000C2004208F400B430C3004308F5008F319F
:100AB0004627843120005E08F3005D08F2005C08E0
:100AC000F1005B08F000BC30C2004208F400B03016
:100AD000C3004308F5008F31462784317F30200062
:100AE0006202031D7D2DFF306102031D7D2DFF304D
:100AF0006002031D7D2DFF305F020318802D812DC4
:100B00008D2D5F08C8076008C93D6108CA3D6208AD
:100B1000CB3D0130D4070030D53D7F306602031D48
:100B20009B2DFF306502031D9B2DFF306402031DCA
:100B30009B2DFF30630203189E2D9F2DAB2D630864
:100B4000CC076408CD3D6508CE3D6608CF3D013039
:100B5000D6070030D73D7F305E02031DB92DFF3030
:100B60005D02031DB92DFF305C02031DB92DFF305E
:100B70005B020318BC2DBD2DCA2D5B08D0075C0895
:100B8000D13D5D08D23D5E08D33D0130D80700302D
:100B9000D93DCA2D0130C2004208DA078C308831B5
:100BA0000A0085315A02031CD62DD72D8D2CD82D45
:100BB0004B08A3004A08A2004908A1004808A00069
:100BC0005508A501A5075408A401A407A030C20038
:100BD0004208A6008E31B526843120004F08A300BC
:100BE0004E08A2004D08A1004C08A0005708A5011E
:100BF000A5075608A401A407A830C2004208A60011
:100C00008E31B526843120005308A3005208A2007B
:100C10005108A1005008A0005908A501A5075808CF
:100C2000A401A407A430C2004208A6008E31B52654
:100C300084310800003020002D02031D292E0F30C2
:100C40002C02031D292E42302B02031D292E403079
:100C50002A02031C2C2E2D2E312E8C31302486316D
:100C6000FF2F003020002D02031D402E01302C02EA
:100C7000031D402E86302B02031D402EA0302A0279
:100C8000031C432E442ED72E0030A3000030A200B8
:100C90000030A1000A30A0000030F3000130F20063
:100CA0008630F100A030F0002D08F7002C08F60087
:100CB0002B08F5002A08F4008031062086317308DD
:100CC0002000A7007208A6007108A5007008A40003
:100CD0008E310526863120002008AE002E08B00097
:100CE0000030A3000030A2000030A1000A30A000B4
:100CF0000030F3000030F2002730F1001030F00037
:100D00002D08F7002C08F6002B08F5002A08F4003F
:100D100080310620863173082000A7007208A600E3
:100D20007108A5007008A4008E31052686312000C8
:100D30002008AE002E08B1000030A3000030A20051
:100D40000030A1000A30A0000030F3000030F200B3
:100D50000330F100E830F0002D08F7002C08F60011
:100D60002B08F5002A08F40080310620863173082C
:100D70002000A7007208A6007108A5007008A40052
:100D80008E310526863120002008AE002E08B200E4
:100D90003108AE002E08F4003208AF002F08F5002D
:100DA000F601F60A30088131E1218631FF2F00304B
:100DB00020002D02031DE62E00302C02031DE62E1E
:100DC00027302B02031DE62E10302A02031CE92EC9
:100DD000EA2E512F0030A3000030A2000030A10005
:100DE0000A30A0000030F3000030F2002730F1009C
:100DF0001030F0002D08F7002C08F6002B08F50045
:100E00002A08F40080310620863173082000A700EC
:100E10007208A6007108A5007008A4008E3105268E
:100E2000863120002008AE002E08B3000030A30059
:100E30000030A2000030A1000A30A0000030F30012
:100E40000030F2000330F100E830F0002D08F70028
:100E50002C08F6002B08F5002A08F4008031062043
:100E6000863173082000A7007208A6007108A5004B
:100E70007008A4008E310526863120002008AE00BF
:100E80002E08B4003308AE002E08F4003408AF007A
:100E90002F08F500F601F60AFF308131E121863195
:100EA000FF2F003020002D02031D602F00302C0288
:100EB000031D602F03302B02031D602FE8302A0230
:100EC000031C632F642FB62F0030F3000030F200B4
:100ED0000330F100E830F0002D08F7002C08F60090
:100EE0002B08F5002A08F4008031062086317008AE
:100EF0002000AE002E08B5000030A3000030A20094
:100F00000030A1000A30A0000030F3000030F200F1
:100F10000030F1006430F0002D08F7002C08F600D6
:100F20002B08F5002A08F40080310620863173086A
:100F30002000A7007208A6007108A5007008A40090
:100F40008E310526863120002008AE002E08B6001E
:100F50003508AE002E08F4003608AF002F08F50063
:100F6000F601FF308131E1218631FF2F0030200072
:100F70002D02031DC52F00302C02031DC52F00308C
:100F80002B02031DC52F64302A02031CC82FC92F52
:100F9000EF2F0030F3000030F2000030F100643039
:100FA000F0002D08F7002C08F6002B08F5002A08A1
:100FB000F40080310620863170082000AE002E0833
:100FC000B700FF30AE002E08F4003708AF002F083E
:100FD000F500F601FF308131E1218631FF2FFF302E
:100FE0002000AE002E08F400F501F601FF3081313B
:100FF000E1218631FF2FFF2FFF2FFF2FFF2F08004A
:10100000003448340034E1340034003421344434B2
:101010000034C1344434003461340C34003421349D
:101020004C34003460344C340034E0344034003408
:1010300021344C340034E1344C3400346134903485
:101040008634023480340034023410348C34023458
:1010500080348C34023480340A34023480348E3448
:10106000003490348E3400348034043402349034AC
:101070008E34023480348E340234013430341C34E3
:101080000134003410340034313418340134213444
:101090001834013401341434013421340C34013453
:1010A00031340C34013400341834013431341C34FC
:1010B000013421341C341034023400340034103430
:1010C00004340834003480349034823402340134DF
:1010D0003034143408340034E13410340E34023423
:1010E000003411341C344C3400348134FF34033464
:1010F000003400346434003400340034C834003424
:10110000003400340034103400340034203400340F
:10111000003458348234E13464348331812B833198
:10112000952B8331A92B8331BD2B8331D12B833177
:0E113000E52B8331F92B84310D2C8431212CD9
:1017C00020009E1395010B1108002F00A001A1011C
:1017D000A2010800FE0012001E00FE0BEB2B0034DD
:1017E0008B31E0238B3120009F151F119F141F1098
:1017F0009E1708008B31E0238B3120009F151F11AD
:101800009F101F149E17080020009E130B1D092C0B
:101810000A2C0E2CFF30112C112C112C1508112C18
:10182000112C080021000F0806388F0023000F0834
:1018300006388F0020009E151E159E141E149E1340
:1018400008001D3084008D308500A03086000030F7
:10185000870024308B31EA238C3120008231A32A87
:10186000893088310A008C312F00A0008A308831FD
:101870000A008C31A1008B3088310A008C31A20023
:101880000800F2018C318A248C31031C482C492C2D
:101890004B2C72144B2C8C31A4248C31031C512CF6
:1018A000522C542CF214542C7208562C0800F300BD
:1018B000F2015A2C731C5D2C5E2C632C7008F10015
:1018C0007108F207632C0310F00D0310F30CF308FA
:1018D000031D6B2C6C2C5A2C6D2C72086F2C08007D
:1018E0008B132100191799161916991597121716A7
:1018F00097111715971023008C018D018F0121007E
:101900008C018D018E018F0122008C018D018E01D1
:101910008F0108008B31F0238C310330F1009730B8
:10192000F000F00B912CF10B912C962C8C310424AF
:101930008C31FF3A031D9D2C9E2CA02C0310A32C50
:101940000314A32CA32C08008B31FA238C31033011
:10195000F1009730F000F00BAB2CF10BAB2CB02C5E
:101960008C3104248C31FF3A031DB72CB82CBA2CCF
:101970000310BD2C0314BD2CBD2C080022009714AD
:101980001714971721000D080E388D0023000D083D
:101990000E388D0021009E171E179E161E161E1152
:1019A0009E141E141D179D161D169D151D151D1424
:1019B0000800F3007308F2000130F235FF3E031D0A
:1019C000DD2C7235013821009D000D30F200F20B44
:1019D000E72C21009D14EC2C9D18EF2CF02CEC2C06
:1019E0001D101C08F101F1071B08F001F007F82C8D
:1019F0000800F401F501FC2C701CFF2C002D042DB7
:101A00007208F4077308F53D0130F235F30D890BC8
:101A1000052D0130F136F00C890B0A2D7108700488
:101A2000031D132D142DFC2C152D7508F101F10744
:101A30007408F001F0071C2D0800FF34FF34FF3458
:101A40007F34FF34FF34FF347F34FF34FF34FF34FE
:101A50007F34FF34FF34FF347F34FF34FF34FF34EE
:101A60007F34FF34FF34FF347F34FF34FF34FF34DE
:101A70007F34FF34FF34FF347F34FF34FF34FF34CE
:101A80007F342F0092131213921612169211121114
:101A900092141214FD309800BF309900FF309A0064
:101AA00091101110911511111113A001A101A201A2
:101AB000200012112F0095171517951615161511E0
:101AC0009510151093171317931293111311931068
:101AD00014119414141491170800FA000330F8003C
:101AE0007808F0007A088C3157248D317707F90097
:101AF0007908FB000330F8007808F0007B088C318F
:101B000057248D31F9007908FC007C085B3E883150
:101B10000A008D312F00A0007C08013E5B3E883119
:101B20000A008D31A1007C08023E5B3E88310A002C
:101B30008D31A20008007F302100BB00FF30BA00C9
:101B4000FF30B900FF30B8007F30AF00FF30AE008B
:101B5000FF30AD00FF30AC007F30C300FF30C2006B
:101B6000FF30C100FF30C0007F30B700FF30B6004B
:101B7000FF30B500FF30B4007F30BF00FF30BE0043
:101B8000FF30BD00FF30BC007F30B300FF30B2003B
:101B9000FF30B100FF30B000080000302000AB0083
:101BA0000030AA000030A9000030A800D72D201C6A
:101BB000DA2DDB2DE42D2408A8072508A93D2608E9
:101BC000AA3D2708AB3DE42D0130A435A50DA60D97
:101BD000A70D890BE52D0130A336A20CA10CA00C9A
:101BE000890BEC2D2308220421042004031DF92D68
:101BF000FA2DD72DFB2D2B08A3002A08A2002908B7
:101C0000A1002808A000042E0800200023082204B8
:101C10002104200403190D2E0E2E4D2EA901A90A10
:101C20001D2E0130A035A10DA20DA30D890B122E82
:101C30000130A8002808A9071D2EA31F202E212E41
:101C4000112E232E232E23082702031D312E2208B6
:101C50002602031D312E21082502031D312E2008E6
:101C60002402031C342E352E3E2E2008A402210807
:101C7000A53B2208A63B2308A73B3E2E0130A336F6
:101C8000A20CA10CA00C890B3F2E0130A902031D50
:101C90004A2E4B2E232E4D2E4D2E2708A30026080C
:101CA000A2002508A1002408A000562E0800F60175
:101CB000F31F5B2E5C2E642EF209F309F20A03195E
:101CC000F30AF601F60A642EF11F672E682E6E2EB7
:101CD000F009F109F00A0319F10A6E2E7108700477
:101CE0000319732E742EA32EF501F50A812E0130EF
:101CF000F035F10D890B782E0130F4007408F507EA
:101D0000812EF11F842E852E772E872E872E710827
:101D10007302031D8D2E70087202031C902E912EEB
:101D2000962E7008F2027108F33B962E0130F136C0
:101D3000F00C890B972E0130F502031DA02EA12E69
:101D4000872EA32EA32E7608031DA72EAD2EF209F3
:101D5000F309F20A0319F30AAD2E7308F101F10732
:101D60007208F001F007B42E08007F30200023062F
:101D7000031DC42EFF302206031DC42EFF30210692
:101D8000031DC42EFF3020060319C72EC82ECF2EE8
:101D900025082404031DCD2ECE2EDB2ECF2E2608A3
:101DA00086008701FF30C03FFF30C13FFF30C23F98
:101DB0007F30C33F452F2408F0002508F100F201D1
:101DC000F3012308F7002208F6002108F500200897
:101DD000F400803106208E3173082000AE007208B6
:101DE000AD007108AC007008AB00260886008701C2
:101DF000403FA700413FA800423FA900433FAA003F
:101E00007F302A06031D0E2FFF302906031D0E2FDB
:101E1000FF302806031D0E2FFF302706031D112F4C
:101E2000122F1E2F2608860087012B08C03F2C0882
:101E3000C13F2D08C23F2E08C33F452F2B08A700E6
:101E40002C08A8002D08A9002E08AA002608860044
:101E50008701403FA707413FA83D423FA93D433F7F
:101E6000AA3D0130AA36A90CA80CA70C890B322F69
:101E70002608860087012708C03F2808C13F290897
:101E8000C23F2A08C33F452F452F08007F30730605
:101E9000031D542FFF307206031D542FFF307106AF
:101EA000031D542FFF307006031D572F582F5A2F34
:101EB000FF2FFF2F740886008701403FF600413F47
:101EC000F700423FF800433FF9007F307906031DD9
:101ED000732FFF307806031D732FFF307706031D25
:101EE000732FFF307606031D762F772F832F74080C
:101EF000860087017008C03F7108C13F7208C23F69
:101F00007308C33FAC2F740886008701403FF6007A
:101F1000413FF700423FF800433FF9007908730260
:101F2000031D9C2F78087202031D9C2F77087102F5
:101F3000031D9C2F7608700203189F2FA02FAC2F33
:101F40007408860087017008C03F7108C13F72089D
:101F5000C23F7308C33FAC2F750886008701403F1E
:101F6000F600413FF700423FF800433FF9007F3061
:101F70007906031DC52FFF307806031DC52FFF30DE
:101F80007706031DC52FFF307606031DC82FC92F06
:101F9000D52F7508860087017008C03F7108C13FC2
:101FA0007208C23F7308C33FFF2F75088600870180
:101FB000403FF600413FF700423FF800433FF90041
:101FC00073087902031DEE2F72087802031DEE2FAD
:101FD00071087702031DEE2F700876020318F12FA7
:101FE000F22FFF2F7508860087017008C03F710827
:101FF000C13F7208C23F7308C33FFF2FFF2F080085
:020000040001F9
:04000E009CEFEFDA9A
:00000001FF
